{
  "_format": "hh-sol-artifact-1",
  "contractName": "AtomicCloak",
  "sourceName": "contracts/AtomicCloak.sol",
  "abi": [
    {
      "inputs": [
        {
          "internalType": "address",
          "name": "__entryPoint",
          "type": "address"
        }
      ],
      "stateMutability": "nonpayable",
      "type": "constructor"
    },
    {
      "anonymous": false,
      "inputs": [
        {
          "indexed": true,
          "internalType": "address",
          "name": "_swapID",
          "type": "address"
        },
        {
          "indexed": true,
          "internalType": "uint256",
          "name": "_secretKey",
          "type": "uint256"
        }
      ],
      "name": "Close",
      "type": "event"
    },
    {
      "anonymous": false,
      "inputs": [
        {
          "indexed": true,
          "internalType": "address",
          "name": "_swapID",
          "type": "address"
        }
      ],
      "name": "Expire",
      "type": "event"
    },
    {
      "anonymous": false,
      "inputs": [
        {
          "indexed": true,
          "internalType": "address",
          "name": "_swapID",
          "type": "address"
        }
      ],
      "name": "Open",
      "type": "event"
    },
    {
      "inputs": [
        {
          "internalType": "address",
          "name": "_swapID",
          "type": "address"
        },
        {
          "internalType": "uint256",
          "name": "_secretKey",
          "type": "uint256"
        }
      ],
      "name": "closeNoVerify",
      "outputs": [],
      "stateMutability": "nonpayable",
      "type": "function"
    },
    {
      "inputs": [
        {
          "internalType": "address",
          "name": "_swapID",
          "type": "address"
        },
        {
          "internalType": "uint256",
          "name": "_secretKey",
          "type": "uint256"
        }
      ],
      "name": "closeSwap",
      "outputs": [],
      "stateMutability": "payable",
      "type": "function"
    },
    {
      "inputs": [
        {
          "internalType": "uint256",
          "name": "_secretKey",
          "type": "uint256"
        }
      ],
      "name": "commitmentFromSecret",
      "outputs": [
        {
          "internalType": "uint256",
          "name": "",
          "type": "uint256"
        },
        {
          "internalType": "uint256",
          "name": "",
          "type": "uint256"
        }
      ],
      "stateMutability": "pure",
      "type": "function"
    },
    {
      "inputs": [
        {
          "internalType": "uint256",
          "name": "_qx",
          "type": "uint256"
        },
        {
          "internalType": "uint256",
          "name": "_qy",
          "type": "uint256"
        },
        {
          "internalType": "uint256",
          "name": "_sharedSecret",
          "type": "uint256"
        }
      ],
      "name": "commitmentFromSharedSecret",
      "outputs": [
        {
          "internalType": "uint256",
          "name": "",
          "type": "uint256"
        },
        {
          "internalType": "uint256",
          "name": "",
          "type": "uint256"
        }
      ],
      "stateMutability": "pure",
      "type": "function"
    },
    {
      "inputs": [
        {
          "internalType": "uint256",
          "name": "_qx",
          "type": "uint256"
        },
        {
          "internalType": "uint256",
          "name": "_qy",
          "type": "uint256"
        }
      ],
      "name": "commitmentToAddress",
      "outputs": [
        {
          "internalType": "address",
          "name": "",
          "type": "address"
        }
      ],
      "stateMutability": "pure",
      "type": "function"
    },
    {
      "inputs": [],
      "name": "curveOrder",
      "outputs": [
        {
          "internalType": "uint256",
          "name": "",
          "type": "uint256"
        }
      ],
      "stateMutability": "view",
      "type": "function"
    },
    {
      "inputs": [],
      "name": "entryPoint",
      "outputs": [
        {
          "internalType": "contract IEntryPoint",
          "name": "",
          "type": "address"
        }
      ],
      "stateMutability": "view",
      "type": "function"
    },
    {
      "inputs": [
        {
          "internalType": "uint256",
          "name": "_secretKey",
          "type": "uint256"
        }
      ],
      "name": "getHashedCommitment",
      "outputs": [
        {
          "internalType": "address",
          "name": "",
          "type": "address"
        }
      ],
      "stateMutability": "pure",
      "type": "function"
    },
    {
      "inputs": [],
      "name": "getNonce",
      "outputs": [
        {
          "internalType": "uint256",
          "name": "",
          "type": "uint256"
        }
      ],
      "stateMutability": "view",
      "type": "function"
    },
    {
      "inputs": [],
      "name": "gx",
      "outputs": [
        {
          "internalType": "uint256",
          "name": "",
          "type": "uint256"
        }
      ],
      "stateMutability": "view",
      "type": "function"
    },
    {
      "inputs": [],
      "name": "gy",
      "outputs": [
        {
          "internalType": "uint256",
          "name": "",
          "type": "uint256"
        }
      ],
      "stateMutability": "view",
      "type": "function"
    },
    {
      "inputs": [],
      "name": "gyParity",
      "outputs": [
        {
          "internalType": "uint8",
          "name": "",
          "type": "uint8"
        }
      ],
      "stateMutability": "view",
      "type": "function"
    },
    {
      "inputs": [
        {
          "internalType": "uint256",
          "name": "_qx",
          "type": "uint256"
        },
        {
          "internalType": "uint256",
          "name": "_qy",
          "type": "uint256"
        },
        {
          "internalType": "address payable",
          "name": "_recipient",
          "type": "address"
        },
        {
          "internalType": "uint256",
          "name": "_timelock",
          "type": "uint256"
        },
        {
          "internalType": "address",
          "name": "_tokenAddress",
          "type": "address"
        },
        {
          "internalType": "uint256",
          "name": "_value",
          "type": "uint256"
        }
      ],
      "name": "openERC20Swap",
      "outputs": [],
      "stateMutability": "payable",
      "type": "function"
    },
    {
      "inputs": [
        {
          "internalType": "uint256",
          "name": "_qx",
          "type": "uint256"
        },
        {
          "internalType": "uint256",
          "name": "_qy",
          "type": "uint256"
        },
        {
          "internalType": "address payable",
          "name": "_recipient",
          "type": "address"
        },
        {
          "internalType": "uint256",
          "name": "_timelock",
          "type": "uint256"
        }
      ],
      "name": "openETHSwap",
      "outputs": [],
      "stateMutability": "payable",
      "type": "function"
    },
    {
      "inputs": [
        {
          "internalType": "address",
          "name": "_swapID",
          "type": "address"
        }
      ],
      "name": "redeemExpiredSwap",
      "outputs": [],
      "stateMutability": "nonpayable",
      "type": "function"
    },
    {
      "inputs": [
        {
          "internalType": "address",
          "name": "",
          "type": "address"
        }
      ],
      "name": "swaps",
      "outputs": [
        {
          "internalType": "uint256",
          "name": "timelock",
          "type": "uint256"
        },
        {
          "internalType": "address",
          "name": "tokenContract",
          "type": "address"
        },
        {
          "internalType": "uint256",
          "name": "value",
          "type": "uint256"
        },
        {
          "internalType": "address payable",
          "name": "sender",
          "type": "address"
        },
        {
          "internalType": "address payable",
          "name": "recipient",
          "type": "address"
        },
        {
          "internalType": "uint256",
          "name": "fee",
          "type": "uint256"
        }
      ],
      "stateMutability": "view",
      "type": "function"
    },
    {
      "inputs": [
        {
          "components": [
            {
              "internalType": "address",
              "name": "sender",
              "type": "address"
            },
            {
              "internalType": "uint256",
              "name": "nonce",
              "type": "uint256"
            },
            {
              "internalType": "bytes",
              "name": "initCode",
              "type": "bytes"
            },
            {
              "internalType": "bytes",
              "name": "callData",
              "type": "bytes"
            },
            {
              "internalType": "uint256",
              "name": "callGasLimit",
              "type": "uint256"
            },
            {
              "internalType": "uint256",
              "name": "verificationGasLimit",
              "type": "uint256"
            },
            {
              "internalType": "uint256",
              "name": "preVerificationGas",
              "type": "uint256"
            },
            {
              "internalType": "uint256",
              "name": "maxFeePerGas",
              "type": "uint256"
            },
            {
              "internalType": "uint256",
              "name": "maxPriorityFeePerGas",
              "type": "uint256"
            },
            {
              "internalType": "bytes",
              "name": "paymasterAndData",
              "type": "bytes"
            },
            {
              "internalType": "bytes",
              "name": "signature",
              "type": "bytes"
            }
          ],
          "internalType": "struct UserOperation",
          "name": "userOp",
          "type": "tuple"
        }
      ],
      "name": "validateSignature_test",
      "outputs": [],
      "stateMutability": "view",
      "type": "function"
    },
    {
      "inputs": [
        {
          "components": [
            {
              "internalType": "address",
              "name": "sender",
              "type": "address"
            },
            {
              "internalType": "uint256",
              "name": "nonce",
              "type": "uint256"
            },
            {
              "internalType": "bytes",
              "name": "initCode",
              "type": "bytes"
            },
            {
              "internalType": "bytes",
              "name": "callData",
              "type": "bytes"
            },
            {
              "internalType": "uint256",
              "name": "callGasLimit",
              "type": "uint256"
            },
            {
              "internalType": "uint256",
              "name": "verificationGasLimit",
              "type": "uint256"
            },
            {
              "internalType": "uint256",
              "name": "preVerificationGas",
              "type": "uint256"
            },
            {
              "internalType": "uint256",
              "name": "maxFeePerGas",
              "type": "uint256"
            },
            {
              "internalType": "uint256",
              "name": "maxPriorityFeePerGas",
              "type": "uint256"
            },
            {
              "internalType": "bytes",
              "name": "paymasterAndData",
              "type": "bytes"
            },
            {
              "internalType": "bytes",
              "name": "signature",
              "type": "bytes"
            }
          ],
          "internalType": "struct UserOperation",
          "name": "userOp",
          "type": "tuple"
        },
        {
          "internalType": "bytes32",
          "name": "userOpHash",
          "type": "bytes32"
        },
        {
          "internalType": "uint256",
          "name": "missingAccountFunds",
          "type": "uint256"
        }
      ],
      "name": "validateUserOp",
      "outputs": [
        {
          "internalType": "uint256",
          "name": "validationData",
          "type": "uint256"
        }
      ],
      "stateMutability": "nonpayable",
      "type": "function"
    },
    {
      "stateMutability": "payable",
      "type": "receive"
    }
  ],
  "bytecode": "0x610160604052600073ffffffffffffffffffffffffffffffffffffffff1660a09073ffffffffffffffffffffffffffffffffffffffff1681525063685da72760e01b7bffffffffffffffffffffffffffffffffffffffffffffffffffffffff191660c0907bffffffffffffffffffffffffffffffffffffffffffffffffffffffff19168152507fa6ecb3f599964fe04c72e486a8f90172493c21f4185f1ab9a7fe05659480c54860e0908152507fdf67fd3f4255826c234a5262adc70e14a6d42f13ee55b65e885e666e1dd5d3f561010090815250601c60ff166101209060ff168152507ffffffffffffffffffffffffffffffffebaaedce6af48a03bbfd25e8cd0364141610140908152503480156200011857600080fd5b5060405162003f1838038062003f1883398181016040528101906200013e9190620001e3565b8073ffffffffffffffffffffffffffffffffffffffff1660808173ffffffffffffffffffffffffffffffffffffffff16815250505062000215565b600080fd5b600073ffffffffffffffffffffffffffffffffffffffff82169050919050565b6000620001ab826200017e565b9050919050565b620001bd816200019e565b8114620001c957600080fd5b50565b600081519050620001dd81620001b2565b92915050565b600060208284031215620001fc57620001fb62000179565b5b60006200020c84828501620001cc565b91505092915050565b60805160a05160c05160e051610100516101205161014051613c54620002c460003960008181610aab0152611d850152600081816118660152611d40015260008181610a8701526118c8015260008181610461015281816118a701528181611d610152611db4015260008181610b68015261258d0152600081816105f501528181610df90152818161127e01528181611b33015281816121e601526127c1015260006119530152613c546000f3fe60806040526004361061010d5760003560e01c8063685da72711610095578063b0d691fe11610064578063b0d691fe14610394578063d087d288146103bf578063d9a3d893146103ea578063df87326414610406578063ec65dfa41461044357610114565b8063685da727146102c5578063888396d1146102ee5780639840f5441461032b5780639fc4c8301461035657610114565b8063307c0839116100dc578063307c0839146101cd57806338f05f60146101f85780633a871cdd1461022157806358f6956b1461025e57806365f1baf31461028757610114565b806306c91ce3146101195780631688cf54146101445780632cca2cb0146101865780632d58c9a2146101a257610114565b3661011457005b600080fd5b34801561012557600080fd5b5061012e61045f565b60405161013b9190612932565b60405180910390f35b34801561015057600080fd5b5061016b600480360381019061016691906129b5565b610483565b60405161017d96959493929190612a12565b60405180910390f35b6101a0600480360381019061019b9190612acb565b61051f565b005b3480156101ae57600080fd5b506101b7610a85565b6040516101c49190612932565b60405180910390f35b3480156101d957600080fd5b506101e2610aa9565b6040516101ef9190612932565b60405180910390f35b34801561020457600080fd5b5061021f600480360381019061021a9190612b7d565b610acd565b005b34801561022d57600080fd5b5061024860048036038101906102439190612bfc565b610f06565b6040516102559190612932565b60405180910390f35b34801561026a57600080fd5b50610285600480360381019061028091906129b5565b610f39565b005b34801561029357600080fd5b506102ae60048036038101906102a99190612c6b565b611408565b6040516102bc929190612cbe565b60405180910390f35b3480156102d157600080fd5b506102ec60048036038101906102e79190612ce7565b6114a6565b005b3480156102fa57600080fd5b5061031560048036038101906103109190612d27565b611813565b6040516103229190612d67565b60405180910390f35b34801561033757600080fd5b50610340611864565b60405161034d9190612d9e565b60405180910390f35b34801561036257600080fd5b5061037d60048036038101906103789190612db9565b611888565b60405161038b929190612cbe565b60405180910390f35b3480156103a057600080fd5b506103a961194f565b6040516103b69190612e45565b60405180910390f35b3480156103cb57600080fd5b506103d4611977565b6040516103e19190612932565b60405180910390f35b61040460048036038101906103ff9190612e60565b611a02565b005b34801561041257600080fd5b5061042d60048036038101906104289190612db9565b611d37565b60405161043a9190612d67565b60405180910390f35b61045d60048036038101906104589190612ce7565b611e2c565b005b7f000000000000000000000000000000000000000000000000000000000000000081565b60006020528060005260406000206000915090508060000154908060010160009054906101000a900473ffffffffffffffffffffffffffffffffffffffff16908060020154908060030160009054906101000a900473ffffffffffffffffffffffffffffffffffffffff16908060040160009054906101000a900473ffffffffffffffffffffffffffffffffffffffff16908060050154905086565b600061052b8787611813565b905060008060008373ffffffffffffffffffffffffffffffffffffffff1673ffffffffffffffffffffffffffffffffffffffff16815260200190815260200160002060020154146105b1576040517f08c379a00000000000000000000000000000000000000000000000000000000081526004016105a890612f24565b60405180910390fd5b4284116105f3576040517f08c379a00000000000000000000000000000000000000000000000000000000081526004016105ea90612fb6565b60405180910390fd5b7f000000000000000000000000000000000000000000000000000000000000000073ffffffffffffffffffffffffffffffffffffffff168373ffffffffffffffffffffffffffffffffffffffff1603610681576040517f08c379a000000000000000000000000000000000000000000000000000000000815260040161067890613048565b60405180910390fd5b600034146106c4576040517f08c379a00000000000000000000000000000000000000000000000000000000081526004016106bb906130da565b60405180910390fd5b60008211610707576040517f08c379a00000000000000000000000000000000000000000000000000000000081526004016106fe90613146565b60405180910390fd5b6000839050828173ffffffffffffffffffffffffffffffffffffffff1663dd62ed3e33306040518363ffffffff1660e01b8152600401610748929190613166565b602060405180830381865afa158015610765573d6000803e3d6000fd5b505050506040513d601f19601f8201168201806040525081019061078991906131a4565b10156107ca576040517f08c379a00000000000000000000000000000000000000000000000000000000081526004016107c19061321d565b60405180910390fd5b8073ffffffffffffffffffffffffffffffffffffffff166323b872dd3330866040518463ffffffff1660e01b81526004016108079392919061323d565b6020604051808303816000875af1158015610826573d6000803e3d6000fd5b505050506040513d601f19601f8201168201806040525081019061084a91906132ac565b610889576040517f08c379a000000000000000000000000000000000000000000000000000000000815260040161088090613325565b60405180910390fd5b60006040518060c001604052808781526020018673ffffffffffffffffffffffffffffffffffffffff1681526020018581526020013373ffffffffffffffffffffffffffffffffffffffff1681526020018873ffffffffffffffffffffffffffffffffffffffff1681526020016509184e72a0008152509050806000808573ffffffffffffffffffffffffffffffffffffffff1673ffffffffffffffffffffffffffffffffffffffff1681526020019081526020016000206000820151816000015560208201518160010160006101000a81548173ffffffffffffffffffffffffffffffffffffffff021916908373ffffffffffffffffffffffffffffffffffffffff1602179055506040820151816002015560608201518160030160006101000a81548173ffffffffffffffffffffffffffffffffffffffff021916908373ffffffffffffffffffffffffffffffffffffffff16021790555060808201518160040160006101000a81548173ffffffffffffffffffffffffffffffffffffffff021916908373ffffffffffffffffffffffffffffffffffffffff16021790555060a082015181600501559050508273ffffffffffffffffffffffffffffffffffffffff167fece7583a70a505ef0e36d4dec768f5ae597713e09c26011022599ee01abdabfc60405160405180910390a2505050505050505050565b7f000000000000000000000000000000000000000000000000000000000000000081565b7f000000000000000000000000000000000000000000000000000000000000000081565b6000818060600190610adf9190613354565b600090600492610af1939291906133c1565b90610afc9190613440565b90506000828060600190610b109190613354565b600490602492610b22939291906133c1565b90610b2d919061349f565b60001c90506000838060600190610b449190613354565b602490604492610b56939291906133c1565b90610b61919061349f565b60001c90507f00000000000000000000000000000000000000000000000000000000000000007bffffffffffffffffffffffffffffffffffffffffffffffffffffffff1916837bffffffffffffffffffffffffffffffffffffffffffffffffffffffff191614610c06576040517f08c379a0000000000000000000000000000000000000000000000000000000008152600401610bfd9061354a565b60405180910390fd5b60008060008473ffffffffffffffffffffffffffffffffffffffff1673ffffffffffffffffffffffffffffffffffffffff1681526020019081526020016000206040518060c0016040529081600082015481526020016001820160009054906101000a900473ffffffffffffffffffffffffffffffffffffffff1673ffffffffffffffffffffffffffffffffffffffff1673ffffffffffffffffffffffffffffffffffffffff168152602001600282015481526020016003820160009054906101000a900473ffffffffffffffffffffffffffffffffffffffff1673ffffffffffffffffffffffffffffffffffffffff1673ffffffffffffffffffffffffffffffffffffffff1681526020016004820160009054906101000a900473ffffffffffffffffffffffffffffffffffffffff1673ffffffffffffffffffffffffffffffffffffffff1673ffffffffffffffffffffffffffffffffffffffff168152602001600582015481525050905060008060008573ffffffffffffffffffffffffffffffffffffffff1673ffffffffffffffffffffffffffffffffffffffff1681526020019081526020016000206002015411610df7576040517f08c379a0000000000000000000000000000000000000000000000000000000008152600401610dee906135b6565b60405180910390fd5b7f000000000000000000000000000000000000000000000000000000000000000073ffffffffffffffffffffffffffffffffffffffff16816020015173ffffffffffffffffffffffffffffffffffffffff1614610e89576040517f08c379a0000000000000000000000000000000000000000000000000000000008152600401610e8090613622565b60405180910390fd5b8273ffffffffffffffffffffffffffffffffffffffff16610ea983611d37565b73ffffffffffffffffffffffffffffffffffffffff1614610eff576040517f08c379a0000000000000000000000000000000000000000000000000000000008152600401610ef69061368e565b60405180910390fd5b5050505050565b6000610f1061247a565b610f1a84846124f1565b9050610f29846020013561287a565b610f328261287d565b9392505050565b60008060008373ffffffffffffffffffffffffffffffffffffffff1673ffffffffffffffffffffffffffffffffffffffff1681526020019081526020016000206002015411610fbd576040517f08c379a0000000000000000000000000000000000000000000000000000000008152600401610fb4906135b6565b60405180910390fd5b426000808373ffffffffffffffffffffffffffffffffffffffff1673ffffffffffffffffffffffffffffffffffffffff168152602001908152602001600020600001541115611041576040517f08c379a0000000000000000000000000000000000000000000000000000000008152600401611038906136fa565b60405180910390fd5b60008060008373ffffffffffffffffffffffffffffffffffffffff1673ffffffffffffffffffffffffffffffffffffffff1681526020019081526020016000206040518060c0016040529081600082015481526020016001820160009054906101000a900473ffffffffffffffffffffffffffffffffffffffff1673ffffffffffffffffffffffffffffffffffffffff1673ffffffffffffffffffffffffffffffffffffffff168152602001600282015481526020016003820160009054906101000a900473ffffffffffffffffffffffffffffffffffffffff1673ffffffffffffffffffffffffffffffffffffffff1673ffffffffffffffffffffffffffffffffffffffff1681526020016004820160009054906101000a900473ffffffffffffffffffffffffffffffffffffffff1673ffffffffffffffffffffffffffffffffffffffff1673ffffffffffffffffffffffffffffffffffffffff16815260200160058201548152505090506000808373ffffffffffffffffffffffffffffffffffffffff1673ffffffffffffffffffffffffffffffffffffffff1681526020019081526020016000206000808201600090556001820160006101000a81549073ffffffffffffffffffffffffffffffffffffffff021916905560028201600090556003820160006101000a81549073ffffffffffffffffffffffffffffffffffffffff02191690556004820160006101000a81549073ffffffffffffffffffffffffffffffffffffffff0219169055600582016000905550507f000000000000000000000000000000000000000000000000000000000000000073ffffffffffffffffffffffffffffffffffffffff16816020015173ffffffffffffffffffffffffffffffffffffffff160361132757806060015173ffffffffffffffffffffffffffffffffffffffff166108fc82604001519081150290604051600060405180830381858888f19350505050158015611321573d6000803e3d6000fd5b506113c1565b6000816020015190508073ffffffffffffffffffffffffffffffffffffffff1663a9059cbb836060015184604001516040518363ffffffff1660e01b815260040161137392919061373b565b6020604051808303816000875af1158015611392573d6000803e3d6000fd5b505050506040513d601f19601f820116820180604052508101906113b691906132ac565b6113bf57600080fd5b505b8173ffffffffffffffffffffffffffffffffffffffff167f0c36ba37282164e86020ce85f921bc1614b495edb4d3925de9b5b55f2c1bce4a60405160405180910390a25050565b60008060008061141785611888565b9150915073__$a7f515f87d6f6cd1e35111d553ac002116$__63bb8c256a888885856040518563ffffffff1660e01b81526004016114589493929190613773565b6040805180830381865af4158015611474573d6000803e3d6000fd5b505050506040513d601f19601f8201168201806040525081019061149891906137b8565b935093505050935093915050565b426000808473ffffffffffffffffffffffffffffffffffffffff1673ffffffffffffffffffffffffffffffffffffffff1681526020019081526020016000206000015411611529576040517f08c379a000000000000000000000000000000000000000000000000000000000815260040161152090613844565b60405180910390fd5b61153161247a565b60008060008473ffffffffffffffffffffffffffffffffffffffff1673ffffffffffffffffffffffffffffffffffffffff1681526020019081526020016000206040518060c0016040529081600082015481526020016001820160009054906101000a900473ffffffffffffffffffffffffffffffffffffffff1673ffffffffffffffffffffffffffffffffffffffff1673ffffffffffffffffffffffffffffffffffffffff168152602001600282015481526020016003820160009054906101000a900473ffffffffffffffffffffffffffffffffffffffff1673ffffffffffffffffffffffffffffffffffffffff1673ffffffffffffffffffffffffffffffffffffffff1681526020016004820160009054906101000a900473ffffffffffffffffffffffffffffffffffffffff1673ffffffffffffffffffffffffffffffffffffffff1673ffffffffffffffffffffffffffffffffffffffff16815260200160058201548152505090506000808473ffffffffffffffffffffffffffffffffffffffff1673ffffffffffffffffffffffffffffffffffffffff1681526020019081526020016000206000808201600090556001820160006101000a81549073ffffffffffffffffffffffffffffffffffffffff021916905560028201600090556003820160006101000a81549073ffffffffffffffffffffffffffffffffffffffff02191690556004820160006101000a81549073ffffffffffffffffffffffffffffffffffffffff021916905560058201600090555050806080015173ffffffffffffffffffffffffffffffffffffffff166108fc8260a00151836040015161179e9190613893565b9081150290604051600060405180830381858888f193505050501580156117c9573d6000803e3d6000fd5b50818373ffffffffffffffffffffffffffffffffffffffff167f684222b0069d4a2e5e0d986611cc5182d543904c4e4264bf770d4e51faefc82260405160405180910390a3505050565b60008073ffffffffffffffffffffffffffffffffffffffff848460405160200161183e9291906138e8565b6040516020818303038152906040528051906020012060001c1690508091505092915050565b7f000000000000000000000000000000000000000000000000000000000000000081565b60008073__$a7f515f87d6f6cd1e35111d553ac002116$__638081a1e77f00000000000000000000000000000000000000000000000000000000000000007f0000000000000000000000000000000000000000000000000000000000000000866040518463ffffffff1660e01b815260040161190693929190613914565b6040805180830381865af4158015611922573d6000803e3d6000fd5b505050506040513d601f19601f8201168201806040525081019061194691906137b8565b91509150915091565b60007f0000000000000000000000000000000000000000000000000000000000000000905090565b600061198161194f565b73ffffffffffffffffffffffffffffffffffffffff166335567e1a3060006040518363ffffffff1660e01b81526004016119bc9291906139aa565b602060405180830381865afa1580156119d9573d6000803e3d6000fd5b505050506040513d601f19601f820116820180604052508101906119fd91906131a4565b905090565b6000611a0e8585611813565b905060008060008373ffffffffffffffffffffffffffffffffffffffff1673ffffffffffffffffffffffffffffffffffffffff1681526020019081526020016000206002015414611a94576040517f08c379a0000000000000000000000000000000000000000000000000000000008152600401611a8b90612f24565b60405180910390fd5b428211611ad6576040517f08c379a0000000000000000000000000000000000000000000000000000000008152600401611acd90612fb6565b60405180910390fd5b6509184e72a0003411611b1e576040517f08c379a0000000000000000000000000000000000000000000000000000000008152600401611b1590613a1f565b60405180910390fd5b60006040518060c001604052808481526020017f000000000000000000000000000000000000000000000000000000000000000073ffffffffffffffffffffffffffffffffffffffff1681526020013481526020013373ffffffffffffffffffffffffffffffffffffffff1681526020018573ffffffffffffffffffffffffffffffffffffffff1681526020016509184e72a0008152509050806000808473ffffffffffffffffffffffffffffffffffffffff1673ffffffffffffffffffffffffffffffffffffffff1681526020019081526020016000206000820151816000015560208201518160010160006101000a81548173ffffffffffffffffffffffffffffffffffffffff021916908373ffffffffffffffffffffffffffffffffffffffff1602179055506040820151816002015560608201518160030160006101000a81548173ffffffffffffffffffffffffffffffffffffffff021916908373ffffffffffffffffffffffffffffffffffffffff16021790555060808201518160040160006101000a81548173ffffffffffffffffffffffffffffffffffffffff021916908373ffffffffffffffffffffffffffffffffffffffff16021790555060a082015181600501559050508173ffffffffffffffffffffffffffffffffffffffff167fece7583a70a505ef0e36d4dec768f5ae597713e09c26011022599ee01abdabfc60405160405180910390a2505050505050565b600080600160007f00000000000000000000000000000000000000000000000000000000000000007f000000000000000000000000000000000000000000000000000000000000000060001b7f000000000000000000000000000000000000000000000000000000000000000080611db257611db1613a3f565b5b7f0000000000000000000000000000000000000000000000000000000000000000880960001b60405160008152602001604052604051611df59493929190613abb565b6020604051602081039080840390855afa158015611e17573d6000803e3d6000fd5b50505060206040510351905080915050919050565b60008060008473ffffffffffffffffffffffffffffffffffffffff1673ffffffffffffffffffffffffffffffffffffffff1681526020019081526020016000206002015411611eb0576040517f08c379a0000000000000000000000000000000000000000000000000000000008152600401611ea7906135b6565b60405180910390fd5b426000808473ffffffffffffffffffffffffffffffffffffffff1673ffffffffffffffffffffffffffffffffffffffff1681526020019081526020016000206000015411611f33576040517f08c379a0000000000000000000000000000000000000000000000000000000008152600401611f2a90613844565b60405180910390fd5b8173ffffffffffffffffffffffffffffffffffffffff16611f5382611d37565b73ffffffffffffffffffffffffffffffffffffffff1614611fa9576040517f08c379a0000000000000000000000000000000000000000000000000000000008152600401611fa09061368e565b60405180910390fd5b60008060008473ffffffffffffffffffffffffffffffffffffffff1673ffffffffffffffffffffffffffffffffffffffff1681526020019081526020016000206040518060c0016040529081600082015481526020016001820160009054906101000a900473ffffffffffffffffffffffffffffffffffffffff1673ffffffffffffffffffffffffffffffffffffffff1673ffffffffffffffffffffffffffffffffffffffff168152602001600282015481526020016003820160009054906101000a900473ffffffffffffffffffffffffffffffffffffffff1673ffffffffffffffffffffffffffffffffffffffff1673ffffffffffffffffffffffffffffffffffffffff1681526020016004820160009054906101000a900473ffffffffffffffffffffffffffffffffffffffff1673ffffffffffffffffffffffffffffffffffffffff1673ffffffffffffffffffffffffffffffffffffffff16815260200160058201548152505090506000808473ffffffffffffffffffffffffffffffffffffffff1673ffffffffffffffffffffffffffffffffffffffff1681526020019081526020016000206000808201600090556001820160006101000a81549073ffffffffffffffffffffffffffffffffffffffff021916905560028201600090556003820160006101000a81549073ffffffffffffffffffffffffffffffffffffffff02191690556004820160006101000a81549073ffffffffffffffffffffffffffffffffffffffff0219169055600582016000905550507f000000000000000000000000000000000000000000000000000000000000000073ffffffffffffffffffffffffffffffffffffffff16816020015173ffffffffffffffffffffffffffffffffffffffff16036122fb57806080015173ffffffffffffffffffffffffffffffffffffffff166108fc8260a00151836040015161226d9190613893565b9081150290604051600060405180830381858888f19350505050158015612298573d6000803e3d6000fd5b5060008160a0015111156122f657806060015173ffffffffffffffffffffffffffffffffffffffff166108fc8260a001519081150290604051600060405180830381858888f193505050501580156122f4573d6000803e3d6000fd5b505b612431565b8060a00151341015612342576040517f08c379a000000000000000000000000000000000000000000000000000000000815260040161233990613b4c565b60405180910390fd5b6000816020015190508073ffffffffffffffffffffffffffffffffffffffff1663a9059cbb836080015184604001516040518363ffffffff1660e01b815260040161238e92919061373b565b6020604051808303816000875af11580156123ad573d6000803e3d6000fd5b505050506040513d601f19601f820116820180604052508101906123d191906132ac565b6123da57600080fd5b600034111561242f57816060015173ffffffffffffffffffffffffffffffffffffffff166108fc349081150290604051600060405180830381858888f1935050505015801561242d573d6000803e3d6000fd5b505b505b818373ffffffffffffffffffffffffffffffffffffffff167f684222b0069d4a2e5e0d986611cc5182d543904c4e4264bf770d4e51faefc82260405160405180910390a3505050565b61248261194f565b73ffffffffffffffffffffffffffffffffffffffff163373ffffffffffffffffffffffffffffffffffffffff16146124ef576040517f08c379a00000000000000000000000000000000000000000000000000000000081526004016124e690613bb8565b60405180910390fd5b565b6000808380606001906125049190613354565b600090600492612516939291906133c1565b906125219190613440565b905060008480606001906125359190613354565b600490602492612547939291906133c1565b90612552919061349f565b60001c905060008580606001906125699190613354565b60249060449261257b939291906133c1565b90612586919061349f565b60001c90507f00000000000000000000000000000000000000000000000000000000000000007bffffffffffffffffffffffffffffffffffffffffffffffffffffffff1916837bffffffffffffffffffffffffffffffffffffffffffffffffffffffff1916146125fc5760019350505050612874565b60008060008473ffffffffffffffffffffffffffffffffffffffff1673ffffffffffffffffffffffffffffffffffffffff1681526020019081526020016000206040518060c0016040529081600082015481526020016001820160009054906101000a900473ffffffffffffffffffffffffffffffffffffffff1673ffffffffffffffffffffffffffffffffffffffff1673ffffffffffffffffffffffffffffffffffffffff168152602001600282015481526020016003820160009054906101000a900473ffffffffffffffffffffffffffffffffffffffff1673ffffffffffffffffffffffffffffffffffffffff1673ffffffffffffffffffffffffffffffffffffffff1681526020016004820160009054906101000a900473ffffffffffffffffffffffffffffffffffffffff1673ffffffffffffffffffffffffffffffffffffffff1673ffffffffffffffffffffffffffffffffffffffff168152602001600582015481525050905060008060008573ffffffffffffffffffffffffffffffffffffffff1673ffffffffffffffffffffffffffffffffffffffff16815260200190815260200160002060020154036127bf576001945050505050612874565b7f000000000000000000000000000000000000000000000000000000000000000073ffffffffffffffffffffffffffffffffffffffff16816020015173ffffffffffffffffffffffffffffffffffffffff1614612823576001945050505050612874565b8273ffffffffffffffffffffffffffffffffffffffff1661284383611d37565b73ffffffffffffffffffffffffffffffffffffffff161461286b576001945050505050612874565b60009450505050505b92915050565b50565b600081146129165760003373ffffffffffffffffffffffffffffffffffffffff16827fffffffffffffffffffffffffffffffffffffffffffffffffffffffffffffffff906040516128cd90613c09565b600060405180830381858888f193505050503d806000811461290b576040519150601f19603f3d011682016040523d82523d6000602084013e612910565b606091505b50509050505b50565b6000819050919050565b61292c81612919565b82525050565b60006020820190506129476000830184612923565b92915050565b600080fd5b600080fd5b600073ffffffffffffffffffffffffffffffffffffffff82169050919050565b600061298282612957565b9050919050565b61299281612977565b811461299d57600080fd5b50565b6000813590506129af81612989565b92915050565b6000602082840312156129cb576129ca61294d565b5b60006129d9848285016129a0565b91505092915050565b6129eb81612977565b82525050565b60006129fc82612957565b9050919050565b612a0c816129f1565b82525050565b600060c082019050612a276000830189612923565b612a3460208301886129e2565b612a416040830187612923565b612a4e6060830186612a03565b612a5b6080830185612a03565b612a6860a0830184612923565b979650505050505050565b612a7c81612919565b8114612a8757600080fd5b50565b600081359050612a9981612a73565b92915050565b612aa8816129f1565b8114612ab357600080fd5b50565b600081359050612ac581612a9f565b92915050565b60008060008060008060c08789031215612ae857612ae761294d565b5b6000612af689828a01612a8a565b9650506020612b0789828a01612a8a565b9550506040612b1889828a01612ab6565b9450506060612b2989828a01612a8a565b9350506080612b3a89828a016129a0565b92505060a0612b4b89828a01612a8a565b9150509295509295509295565b600080fd5b60006101608284031215612b7457612b73612b58565b5b81905092915050565b600060208284031215612b9357612b9261294d565b5b600082013567ffffffffffffffff811115612bb157612bb0612952565b5b612bbd84828501612b5d565b91505092915050565b6000819050919050565b612bd981612bc6565b8114612be457600080fd5b50565b600081359050612bf681612bd0565b92915050565b600080600060608486031215612c1557612c1461294d565b5b600084013567ffffffffffffffff811115612c3357612c32612952565b5b612c3f86828701612b5d565b9350506020612c5086828701612be7565b9250506040612c6186828701612a8a565b9150509250925092565b600080600060608486031215612c8457612c8361294d565b5b6000612c9286828701612a8a565b9350506020612ca386828701612a8a565b9250506040612cb486828701612a8a565b9150509250925092565b6000604082019050612cd36000830185612923565b612ce06020830184612923565b9392505050565b60008060408385031215612cfe57612cfd61294d565b5b6000612d0c858286016129a0565b9250506020612d1d85828601612a8a565b9150509250929050565b60008060408385031215612d3e57612d3d61294d565b5b6000612d4c85828601612a8a565b9250506020612d5d85828601612a8a565b9150509250929050565b6000602082019050612d7c60008301846129e2565b92915050565b600060ff82169050919050565b612d9881612d82565b82525050565b6000602082019050612db36000830184612d8f565b92915050565b600060208284031215612dcf57612dce61294d565b5b6000612ddd84828501612a8a565b91505092915050565b6000819050919050565b6000612e0b612e06612e0184612957565b612de6565b612957565b9050919050565b6000612e1d82612df0565b9050919050565b6000612e2f82612e12565b9050919050565b612e3f81612e24565b82525050565b6000602082019050612e5a6000830184612e36565b92915050565b60008060008060808587031215612e7a57612e7961294d565b5b6000612e8887828801612a8a565b9450506020612e9987828801612a8a565b9350506040612eaa87828801612ab6565b9250506060612ebb87828801612a8a565b91505092959194509250565b600082825260208201905092915050565b7f5377617020686173206265656e20616c7265616479206f70656e65642e000000600082015250565b6000612f0e601d83612ec7565b9150612f1982612ed8565b602082019050919050565b60006020820190508181036000830152612f3d81612f01565b9050919050565b7f54696d656c6f636b2076616c7565206d75737420626520696e2074686520667560008201527f747572652e000000000000000000000000000000000000000000000000000000602082015250565b6000612fa0602583612ec7565b9150612fab82612f44565b604082019050919050565b60006020820190508181036000830152612fcf81612f93565b9050919050565b7f5468652061646472657373206973206e6f7420612076616c696420455243323060008201527f20746f6b656e2e00000000000000000000000000000000000000000000000000602082015250565b6000613032602783612ec7565b915061303d82612fd6565b604082019050919050565b6000602082019050818103600083015261306181613025565b9050919050565b7f43616e6e6f742073656e6420455448207768656e207377617070696e6720616e60008201527f20455243323020746f6b656e2e00000000000000000000000000000000000000602082015250565b60006130c4602d83612ec7565b91506130cf82613068565b604082019050919050565b600060208201905081810360008301526130f3816130b7565b9050919050565b7f56616c7565206d757374206265206c6172676572207468616e20302e00000000600082015250565b6000613130601c83612ec7565b915061313b826130fa565b602082019050919050565b6000602082019050818103600083015261315f81613123565b9050919050565b600060408201905061317b60008301856129e2565b61318860208301846129e2565b9392505050565b60008151905061319e81612a73565b92915050565b6000602082840312156131ba576131b961294d565b5b60006131c88482850161318f565b91505092915050565b7f4e6f7420656e6f7567682062616c616e63652e00000000000000000000000000600082015250565b6000613207601383612ec7565b9150613212826131d1565b602082019050919050565b60006020820190508181036000830152613236816131fa565b9050919050565b600060608201905061325260008301866129e2565b61325f60208301856129e2565b61326c6040830184612923565b949350505050565b60008115159050919050565b61328981613274565b811461329457600080fd5b50565b6000815190506132a681613280565b92915050565b6000602082840312156132c2576132c161294d565b5b60006132d084828501613297565b91505092915050565b7f5472616e73666572206661696c65642e00000000000000000000000000000000600082015250565b600061330f601083612ec7565b915061331a826132d9565b602082019050919050565b6000602082019050818103600083015261333e81613302565b9050919050565b600080fd5b600080fd5b600080fd5b6000808335600160200384360303811261337157613370613345565b5b80840192508235915067ffffffffffffffff8211156133935761339261334a565b5b6020830192506001820236038313156133af576133ae61334f565b5b509250929050565b600080fd5b600080fd5b600080858511156133d5576133d46133b7565b5b838611156133e6576133e56133bc565b5b6001850283019150848603905094509492505050565b600082905092915050565b60007fffffffff0000000000000000000000000000000000000000000000000000000082169050919050565b600082821b905092915050565b600061344c83836133fc565b826134578135613407565b92506004821015613497576134927fffffffff0000000000000000000000000000000000000000000000000000000083600403600802613433565b831692505b505092915050565b60006134ab83836133fc565b826134b68135612bc6565b925060208210156134f6576134f17fffffffffffffffffffffffffffffffffffffffffffffffffffffffffffffffff83602003600802613433565b831692505b505092915050565b7f496e76616c69642073656c6563746f722e000000000000000000000000000000600082015250565b6000613534601183612ec7565b915061353f826134fe565b602082019050919050565b6000602082019050818103600083015261356381613527565b9050919050565b7f5377617020686173206e6f74206265656e206f70656e65642e00000000000000600082015250565b60006135a0601983612ec7565b91506135ab8261356a565b602082019050919050565b600060208201905081810360008301526135cf81613593565b9050919050565b7f546f6b656e20636f6e7472616374206973206e6f74204554482e000000000000600082015250565b600061360c601a83612ec7565b9150613617826135d6565b602082019050919050565b6000602082019050818103600083015261363b816135ff565b9050919050565b7f566572696669636174696f6e206661696c65642e000000000000000000000000600082015250565b6000613678601483612ec7565b915061368382613642565b602082019050919050565b600060208201905081810360008301526136a78161366b565b9050919050565b7f5377617020686173206e6f7420657870697265642e0000000000000000000000600082015250565b60006136e4601583612ec7565b91506136ef826136ae565b602082019050919050565b60006020820190508181036000830152613713816136d7565b9050919050565b600061372582612e12565b9050919050565b6137358161371a565b82525050565b6000604082019050613750600083018561372c565b61375d6020830184612923565b9392505050565b61376d81612919565b82525050565b60006080820190506137886000830187613764565b6137956020830186613764565b6137a26040830185613764565b6137af6060830184613764565b95945050505050565b600080604083850312156137cf576137ce61294d565b5b60006137dd8582860161318f565b92505060206137ee8582860161318f565b9150509250929050565b7f537761702068617320657870697265642e000000000000000000000000000000600082015250565b600061382e601183612ec7565b9150613839826137f8565b602082019050919050565b6000602082019050818103600083015261385d81613821565b9050919050565b7f4e487b7100000000000000000000000000000000000000000000000000000000600052601160045260246000fd5b600061389e82612919565b91506138a983612919565b92508282039050818111156138c1576138c0613864565b5b92915050565b6000819050919050565b6138e26138dd82612919565b6138c7565b82525050565b60006138f482856138d1565b60208201915061390482846138d1565b6020820191508190509392505050565b60006060820190506139296000830186613764565b6139366020830185613764565b6139436040830184613764565b949350505050565b6000819050919050565b600077ffffffffffffffffffffffffffffffffffffffffffffffff82169050919050565b600061399461398f61398a8461394b565b612de6565b613955565b9050919050565b6139a481613979565b82525050565b60006040820190506139bf60008301856129e2565b6139cc602083018461399b565b9392505050565b7f496e76616c6964206d6573736167652076616c75652e00000000000000000000600082015250565b6000613a09601683612ec7565b9150613a14826139d3565b602082019050919050565b60006020820190508181036000830152613a38816139fc565b9050919050565b7f4e487b7100000000000000000000000000000000000000000000000000000000600052601260045260246000fd5b60008160001b9050919050565b6000613a96613a91613a8c8461394b565b613a6e565b612bc6565b9050919050565b613aa681613a7b565b82525050565b613ab581612bc6565b82525050565b6000608082019050613ad06000830187613a9d565b613add6020830186612d8f565b613aea6040830185613aac565b613af76060830184613aac565b95945050505050565b7f496e73756666696369656e74206665652e000000000000000000000000000000600082015250565b6000613b36601183612ec7565b9150613b4182613b00565b602082019050919050565b60006020820190508181036000830152613b6581613b29565b9050919050565b7f6163636f756e743a206e6f742066726f6d20456e747279506f696e7400000000600082015250565b6000613ba2601c83612ec7565b9150613bad82613b6c565b602082019050919050565b60006020820190508181036000830152613bd181613b95565b9050919050565b600081905092915050565b50565b6000613bf3600083613bd8565b9150613bfe82613be3565b600082019050919050565b6000613c1482613be6565b915081905091905056fea2646970667358221220ba5a6363332227f1149804572855f07f1b269061ca7d176c7bdaa73b5f0243a164736f6c63430008120033",
  "linkReferences": {
    "contracts/ECCUtils.sol": {
      "ECCUtils": [
        {
          "length": 20,
          "start": 5857
        },
        {
          "length": 20,
          "start": 6993
        }
      ]
    }
  },
  "deployedLinkReferences": {
    "contracts/ECCUtils.sol": {
      "ECCUtils": [
        {
          "length": 20,
          "start": 5149
        },
        {
          "length": 20,
          "start": 6285
        }
      ]
    }
  }
}